:020000040000FA
:10000000A8630020650100006D01000049020000A6
:1000100000000000000000000000000000000000E0
:10002000000000000000000000000000710100005E
:100030000000000000000000C7010000810E000069
:1000400077010000770100007701000077010000D0
:1000500077010000770100007701000077010000C0
:1000600077010000770100007701000077010000B0
:1000700077010000770100007701000077010000A0
:100080007701000077010000770100007701000090
:100090007701000077010000770100007701000080
:1000A0007701000077010000770100007701000070
:1000B0007701000077010000770100007701000060
:1000C00000F002F800F03EF80CA030C80838241800
:1000D0002D18671EA246AB4654465D46AC4201D180
:1000E00000F030F87E460F3EB6460FCC0126334274
:1000F00000D0FB1A3343A246AB461847382D000008
:10010000582D0000103A02D378C878C1FAD85207A7
:1001100001D330C830C101D504680C6070470000BD
:100120000023002400250026103A01D378C1FBD813
:10013000520700D330C100D50B6070471FB51FBDFB
:1001400010B510BD00F031FA1146FFF7F7FF00F0CF
:1001500057FA00F049FA03B4FFF7F2FF03BC00F0CE
:10016000B4FF00000748804707480047FEE7FEE766
:10017000FEE7FEE7FEE7FEE704480549054A064BB1
:1001800070470000890E0000C1000000A853002045
:10019000A8630020A85B0020A85B0020EFF310807C
:1001A00072B6704780F3108870472A4A1368012B93
:1001B00003D001231360284A1060284A11602848A0
:1001C000284901607047EFF3108272B62148016838
:1001D00000291DD0002101601F48016800290AD0B4
:1001E000EFF30981203900680160F0C144464D46B3
:1001F00056465F46F0C1194909680968F0C9F0B46C
:10020000F0C9A046A946B246BB46F0BC81F30988B6
:1002100082F31088042040420047104908600E49CC
:10022000002008600B49012008600F480F49026850
:10023000114301600A480B4901600D4800680068DD
:1002400080F3088862B67047EFF3098000B501F0CB
:1002500056FC00BD885300206C51002074510020D2
:1002600004ED00E00000001020ED00E00000FFFFC2
:1002700008ED00E030B5441C03E00178401C002983
:100280000DD08107F9D10B4BDD0104C8D11A914380
:100290002940FAD0001B0A0603D0C01E30BD001B47
:1002A00030BD0A0401D0801E30BD0902FCD0401EC2
:1002B00030BD0000010101010346F0B50B439B076F
:1002C0002DD1244DEF01042A29D308C810C95E1B83
:1002D0009E43121F3E4017D0D8B2E1B2401A3106F9
:1002E000014310D198B2A1B2401A310401430AD19E
:1002F00018022102000A090A401A3102014302D100
:10030000180E210E401AF0BDA342DCD018BA21BA53
:10031000884201D90120F0BD0020C043F0BD002A71
:1003200001D10020F0BD03780C78401C491C002B43
:100330000DD0A3420BD1521E09D003780C78401C7B
:10034000491C002B03D0A34201D1521EEBD1181B34
:10035000F0BD000001010101D2B210B513029A18DC
:1003600013049A1800F00EF810BD01E004C0091F34
:100370000429FBD28B0701D50280801CC90700D05D
:100380000270704700290BD0C30702D00270401CD6
:10039000491E022904D3830702D50280801C891ECE
:1003A000E3E70022EEE70022DFE700000022030976
:1003B0008B4273D3030A8B4258D3030B8B423CD33B
:1003C000030C8B4221D312E003460B437FD400225F
:1003D00043088B4274D303098B425FD3030A8B42D9
:1003E00044D3030B8B4228D3030C8B420DD3090259
:1003F000FF2212BA030C8B4202D31212090265D0FB
:10040000030B8B4219D300E0090AC30B8B4201D3C3
:10041000CB03C01A5241830B8B4201D38B03C01A0A
:100420005241430B8B4201D34B03C01A5241030B81
:100430008B4201D30B03C01A5241C30A8B4201D332
:10044000CB02C01A5241830A8B4201D38B02C01ADD
:100450005241430A8B4201D34B02C01A5241030A54
:100460008B4201D30B02C01A5241CDD2C3098B4239
:1004700001D3CB01C01A524183098B4201D38B01B6
:10048000C01A524143098B4201D34B01C01A524159
:1004900003098B4201D30B01C01A5241C3088B429E
:1004A00001D3CB00C01A524183088B4201D38B0089
:1004B000C01A524143088B4201D34B00C01A52412B
:1004C000411A00D201465241104670475DE0CA0F02
:1004D00000D04942031000D3404253409C460022C2
:1004E00003098B422DD3030A8B4212D38901FC22CC
:1004F00012BA030A8B420CD3890192118B4208D3A2
:10050000890192118B4204D389013AD0921100E003
:100510008909C3098B4201D3CB01C01A5241830917
:100520008B4201D38B01C01A524143098B4201D344
:100530004B01C01A524103098B4201D30B01C01A6F
:100540005241C3088B4201D3CB00C01A52418308E9
:100550008B4201D38B00C01A5241D9D243088B423F
:1005600001D34B00C01A5241411A00D201465241F8
:10057000104663465B1001D34042002B00D5494230
:10058000704763465B1000D3404201B50449002820
:1005900002DC491C084000E00846C046C04602BDD7
:1005A000FFFFFF7F704770477047754600F024F8E3
:1005B000AE46050069465346C008C000854618B0DF
:1005C00020B5FFF7D9FD60BCB64600260027C0C5A0
:1005D000C0C5C0C5C0C5C0C5C0C5C0C5C0C5403DFB
:1005E000490849008D46704710B50446C046C046CC
:1005F0002046FFF7B0FD10BD0048704748000020BE
:1006000080B502F0D6F8002080BD0000B0B58CB0F7
:1006100000240994079406940B940A9408940120EA
:10062000099002200790032568030690059404941E
:100630000394029401940094094806A900F096F9E5
:10064000059510200490039440200290E120400280
:10065000019000940348694600F094FA0CB0B0BDD4
:10066000000C00400020014008480168042291432A
:10067000016070470548016804220A430260704720
:100680000248016880220A43026070473424004017
:1006900002490A6802430A607047C0463C24004091
:1006A00002490A6802430A607047C0464C24004071
:1006B00080B500F021F80821C841072808D8C046B5
:1006C000784400794000874403030303060A0E12AE
:1006D00000F09CF880BD00F099F8400880BD00F063
:1006E00095F8800880BD00F091F8C00880BD00F04A
:1006F0008DF8000980BD00000720010257480068FE
:100700000840704780B500F021F81021C841072843
:1007100008D8C046784400794000874403030303A7
:10072000060A0E12FFF7C4FF80BDFFF7C1FF4008A5
:1007300080BDFFF7BDFF800880BDFFF7B9FFC0088F
:1007400080BDFFF7B5FF000980BD00000720010450
:10075000424800680840704710B500F081F8022850
:1007600001D13A4C02E000F02BF8044600F07EF88C
:100770000421C841401E06281DD8C046784400798F
:1007800040008744030507090F111700640812E0B1
:10079000A40810E0E4080EE00C21204602F03FF827
:1007A000044608E0240906E01821204602F037F844
:1007B000044600E0640900F05FF8401C604310BD8F
:1007C00080B500F061F81021C841411E1F48022980
:1007D00002D848430149401880BDC0460024F400B7
:1007E00080B500F059F81021C841401E022803D8F6
:1007F000800003A1085880BD4B20400380BDC04647
:1008000000580200002C01000096000080B500F0A6
:100810001FF8062813D801460C48C04679440979C8
:1008200049008F44060E090C0F0303000120C0038A
:1008300080BDFFF7C5FF80BDFFF78EFF80BDFFF7CE
:10084000BFFF80BDFFF7CCFF80BDC04600127A001D
:1008500002480168072008407047C0460024004055
:1008600008480168022008407047C04605480168F2
:10087000702008407047C046024800684002400EA1
:100880007047C0460C2400400F2001040148006856
:100890000840704704240040032001040148006818
:1008A000084070472424004007490A6803239A43FC
:1008B00002430A607047C04603490A680C239A4302
:1008C00002430A607047C04644240040044801685F
:1008D00004220A430260016801220A430260704751
:1008E00010E000E0C943134A0A43816A1140816263
:1008F0007047C046C9430F4A0A430168114001606E
:100900007047C046C9430B4A0A4381681140816061
:100910007047C046C943074A0A43416811404160D5
:100920007047C046C943034A0A43016A1140016245
:100930007047C0460000FFFF89B2826A0A438262A4
:10094000704789B202680A430260704789B28268C0
:100950000A438260704789B242680A434260704726
:1009600089B2026A0A43026270470000F0B581B0A2
:100970000C4605464648854206D0444828180621BC
:10098000C841042800D3FEE72068401E4149884240
:1009900000D3FEE7606804280FD2A06802280DD2B9
:1009A000E06802280BD26069022809D2FFF768FECE
:1009B0002068002866D0002711E0FEE7FEE7FEE78A
:1009C000FEE728463146FFF7ADFF6268284631460C
:1009D00000F07CF87F1C20680146F94052D00126C7
:1009E000BE400640F6D06068032813D12846314641
:1009F000FFF780FF28463146FFF78CFF2846314637
:100A0000FFF780FF6069012810D128463146FFF7C3
:100A100093FF2CE028463146FFF764FF606800280A
:100A200009D028463146FFF765FF08E028463146E1
:100A3000FFF758FF1BE028463146FFF782FFA0680A
:100A4000002804D028463146FFF780FF03E02846FF
:100A50003146FFF757FFE068002804D028463146AA
:100A6000FFF779FF03E028463146FFF753FF606840
:100A70000228AAD120690128A3D128463146FFF7D0
:100A80006FFFA2E7012001B0F0BDC04600F4FFBF38
:100A9000000D0040FFFF000080B202490A680243D7
:100AA0000A607047980C00400348016804220A431A
:100AB0000B218A4302607047000E004080B2024959
:100AC0000A6802430A607047940C004049434A4355
:100AD00003234B43C16899431143C1607047000031
:100AE00002490A6842400A607047C046900C0040C4
:100AF00080B5FFF7EBFE80BD0120000204490860CD
:100B00007047C046024800688007C00F7047C04663
:100B10000840014002480168064808407047C04646
:100B20001840014002480168024808407047C0462A
:100B300010400140FF01000003490A680B4B1340BD
:100B4000181808607047C046144001400248016808
:100B5000064A0A40026070473010014002480168AE
:100B6000024A0A400260704730F0014000FEFFFF79
:100B7000016802220A4302607047016801220A43A9
:100B800002607047F0B581B00D4604466348844268
:100B900009DD634884420CD06248844209D062482F
:100BA000844206D020E06148844202D060488442FA
:100BB0001AD128680C2818D80126314681405D4A90
:100BC000114212D0A9680622D14104290BD2296909
:100BD000002903D0102901D0202907D1E968564AFD
:100BE000114204D0FEE7FEE7FEE7FEE7FEE7696993
:100BF000042905D24D498C4203D00027009721E0FB
:100C0000FEE7FFF751FE2868032809D878440079E9
:100C10004000874401070B0FFFF774FD07460AE009
:100C2000002708E0FFF7CCFD074604E0FFF7EEFDE4
:100C3000074600E0414F6968384601F0F0FD401E6C
:100C400000903A493A48844223D12868FFF734FE9D
:100C500028680221C841032813D8C0467844007987
:100C6000400087440105090DFFF74CFD074608E0E9
:100C7000FFF7A6FD074604E0FFF7C8FD074600E0C2
:100C80002E4F6968384601F0CAFD401E0090274982
:100C900027488C420DD084420DD02348844213D083
:100CA0002048844212D01E488442009F17D1F0028F
:100CB0000DE0370200E077023846FFF7E9FC3846DE
:100CC000FFF7EEFC009F0AE0700300E03003FFF73F
:100CD000DFFCFFF717FD696801F0A1FD471E287DC5
:100CE000C00702D02046FFF748FF287D800702D5C5
:100CF0002046FFF73DFF2046394600F035F8E96809
:100D0000204600F029F8A968204600F019F8296962
:100D1000204600F01BF8012001B0F0BDFF6F01403C
:100D20000070014000740140007801400020014043
:100D3000006801401F110000FFFEFFFF00127A0053
:100D40000268C0239A430A43026070470268302356
:100D50009A430A43026070470122120203689343D8
:100D60000B430360704700008269024B13400B4342
:100D7000836170470000FFFF80B586B000200590BA
:100D8000049003900290022001900120C002009084
:100D900003486946FFF7EAFDFFF786FE06B080BD0F
:100DA000C00C004070B586B00025059504950395EC
:100DB00002950195009502242046FFF76DFE0395EC
:100DC000029501200190009420486946FFF7CEFD6E
:100DD000052602242046FFF75FFE6425284601F021
:100DE000EDFA2046FFF76AFE284601F0E7FA761E84
:100DF0003006EED106B070BD70B586B00025059501
:100E00000495039502950195009501242046FFF76E
:100E100043FE03950295019400940C486946FFF740
:100E2000A5FD052601242046FFF736FE6425284649
:100E300001F0C4FA2046FFF741FE284601F0BEFA51
:100E4000761E3006EED106B070BDC046800C004064
:100E500080B5FFF70FFCFFF779FEFFF705FCFFF702
:100E60007DFE80BD70477047FF20000603490A6879
:100E700082430320800710180860704720ED00E0CF
:100E800080B501F07BF880BDF0B581B00120010391
:100E9000264802680A430260016880231943016002
:100EA00023490A1D234C2260234A17681F22BDB222
:100EB0004D403E0C1024B542009201D0274600E080
:100EC00017401E4A17601E4F7D6AAEB24E402A0C74
:100ED000964201D01D4600E0EDB202460C3A156084
:100EE0003D68AAB24A402E0CB24200D1EBB2203883
:100EF00003601148006882B24A40010C8A4201D066
:100F0000204601E0009908400C4908600320C00118
:100F10000C490A6802430A600B48052101600B482E
:100F2000016802220A43026001B0F0BD342400408F
:100F3000FFFF00000400004098FAFF1F3820004027
:100F400020FBFF1FC40C00400028004000E00140CF
:100F500080B5FFF727FFFFF74FFFFFF757FB80BD77
:100F600010B5401E010E07D1044C6060FFF77CFFF6
:100F70000020A0600720206010BDC04610E000E007
:100F8000002804D0C1B2002903D0012010E00020C5
:100F90007047FF210A02024002D0110A092007E02F
:100FA0000904014002D0090C112001E0010E1920B2
:100FB000014A515C40187047142A00000248016839
:100FC000081A411E884170477C510020F0B58BB053
:100FD0000D4606460021705C092806D0202804D062
:100FE0008D4201D0491CF6E729460027FC43002921
:100FF0001BD00292304600F0D5FB002815D001909E
:101000000A970997089707970697059704970397F4
:1010100003AA3046294600F0FDFB002805D003A9AD
:10102000019A9047029908603C4620460BB0F0BDFB
:10103000F0B583B01D4616460F460446143000F046
:10104000CCFD089A27626662A562E26223212846E7
:1010500000F0EBFE234620330FCBD218121F0F4BAC
:1010600000F050FD34220021A15422463432099B65
:101070009370E0610A98A163E06320645370216774
:10108000616721630091019120464430044A214662
:10109000234601F01EFB03B0F0BDC046B5220000A0
:1010A000C524000010B50024C1610262436284625D
:1010B000FE21029A0A404272143000F091FD10BDE8
:1010C00080B5143000F0E7FD80BD7047B0B505462F
:1010D000FFF764F80446296F002901D028468847A5
:1010E0002046FFF75FF8B0BD80B500F032FA00206F
:1010F00080BD80B500F04EFA002080BD80B500F0C4
:10110000E3FC80BD10B5D749096824228B5CFD241F
:101110001C40C007800F2018885410BD024A11607F
:10112000024908607047C046AC000020A8000020BB
:10113000F0B583B015481649FFF7F0FF01257C2173
:10114000284600F01DFC134F38600024002818D0FA
:101150000A2000900190AB020FA01149224601F035
:1011600084F8064638680FA12246234600F074FF33
:101170002846FFF7C7FF002E04D0304601F06AF979
:1011800000E0E443204603B0F0BDC046742D0000EB
:10119000342E00009C530020747368656C6C000052
:1011A000AD1100007368727800000000AD4D286832
:1011B0002421425C0126324302E0801825210022CE
:1011C000425400E00662FFF799FF0028FBD4044672
:1011D00028681B2CF6D001467631026A022A08D014
:1011E000012A00D0A7E05B2C00D0A2E0022101621E
:1011F000E9E7002202622246413A022AE3D3442C64
:1012000000D9D2E0A20001A39A589746211300000A
:10121000BD130000BD130000BD130000BD1300008E
:10122000BD130000BD130000BD130000B513000086
:10123000E71300007F130000BD130000BD13000082
:101240007F130000BD130000BD130000BD1300009C
:10125000BD130000BD130000BD130000BD1300004E
:10126000BD130000BD130000BD130000BD1300003E
:10127000BD130000BD130000BD130000BD1300002E
:10128000BD130000BD130000BD130000BD1300001E
:10129000BD130000BD130000BD130000BD1300000E
:1012A000BD130000BD130000BD130000BD130000FE
:1012B000BD130000BD130000BD130000BD130000EE
:1012C000BD130000BD130000BD130000BD130000DE
:1012D000BD130000BD130000BD130000BD130000CE
:1012E000BD130000BD130000BD130000BD130000BE
:1012F000BD130000BD130000BD130000BD130000AE
:10130000BD130000BD130000BD130000BD1300009D
:10131000BD130000BD1300002313000029140000BA
:1013200051E748880A88904200D34CE7401C488027
:1013300049E7002202620D2C37D8A20001A39A5877
:101340009746C0467D130000BD130000BD1300008A
:10135000BD130000BD130000BD130000BD1300004D
:10136000BD130000B5130000E71300007F13000059
:10137000BD130000BD1300007F13000023E700F041
:1013800047FA012805D128687621415A253000F016
:10139000E5F92C68204625305021FFF702F8762029
:1013A00000212152763461800DE7FF2C00D10AE73D
:1013B0007F2C03D14A88002A3DD104E70A88502AAD
:1013C00001D300220A800A8849888A4218D9521A11
:1013D000411808462630253100F00EFD2868782196
:1013E000415A40180DE0253001F0F8F92C682046EC
:1013F0002530FEF73FFF7621605276346080E2E6CA
:1014000080182530047028687621425A521C4252B6
:1014100076304188491C418091B2502900D2D2E6F1
:10142000002141800180CEE64888002800D1CAE62C
:10143000401E4880C7E6521E4A800B885B1E0B8008
:1014400091B29AB28A4200D8B7E6521A41180846B9
:101450002530263100F0D0FC28687621415A40180A
:10146000ACE6C0469C530020002070470220FFF7E6
:1014700037FBC82000F0A2FFF8E70120FFF730FBA0
:10148000C82000F09BFFF8E70020704770B51446B5
:101490000D460646084600F039FD35720021082247
:1014A000F2603161001D11C670BDF0B581B0064615
:1014B00000250D61C868002828D00C46087A00284D
:1014C00024D000952768002E3D4600D03546FEF713
:1014D00065FE002E06D0291F09787F220A40217A56
:1014E0008A4210D1626800210E462D68BD4205D0A7
:1014F00020C2761CE3689E42F7D100E00D46FEF75D
:1015000051FE266102E0FEF74DFE009D284601B027
:10151000F0BD70B58EB009A8052101AAFFF7B6FF8E
:10152000002401E0002C11D009A92046FFF7BDFFDF
:1015300004460D980128F5DB00250D9EFEF72EFED2
:10154000FEF730FE6D1CB542F8DBEBE700200EB075
:1015500070BD704770B58EB009A8022101AAFFF7CF
:1015600095FF002401E0002C11D009A92046FFF7C7
:101570009CFF04460D980128F5DB00250D9EFEF723
:101580000DFEFEF70FFE6D1CB542F8DBEBE7002009
:101590000EB070BDF0B58FB00AA8012102AAFFF706
:1015A00075FF002002E00098002823D00AA9FFF769
:1015B0007CFF00900E980128F5DB0AA8007A0190C4
:1015C00000260E9F02E0761CBE42ECDAB00002A9B3
:1015D0000C58251FFEF7E2FD2D78FEF7E3FD7F2076
:1015E000284001998842EED1E0690178401C232906
:1015F000FBD0E8E700200FB0F0BD70B58EB009A8B1
:101600000A2101AAFFF742FF002401E0002C11D0BB
:1016100009A92046FFF749FF04460D980128F5DB8C
:1016200000250D9EFEF7BAFDFEF7BCFD6D1CB54210
:10163000F8DBEBE700200EB070BD0000B0B582B063
:10164000FFF706FCFFF70FFCFFF752FAFFF70AFC63
:10165000FFF77EFCFFF790FB142502200090019518
:1016600010A0124900248023224600F0FEFD1049FC
:101670000860E443002812D000F0ECFE0320009044
:1016800001950CA00D49002580232A4600F0EDFDB0
:101690000B490860002802D000F0DCFE2C462046F2
:1016A00002B0B0BD4C454431000000006D14000094
:1016B000500100204C454432000000007B14000023
:1016C0005401002080B500F077F9FFF7B7FF80BD27
:1016D000F0B583B00446007800283DD0484807683C
:1016E0004848016800228F42019202922DD206687A
:1016F000002002900190009404E00290009C0C37BE
:10170000B74222D23D68062228463F49FEF7D4FD63
:101710000028F4D12046FEF7ADFD0246AD1D20465F
:101720002946FEF7C9FD0028E9D1029C002C04D10E
:101730002846FEF79FFD044601950198294601F0D1
:1017400057F8A042D9DB2046D7E70199002903D0FA
:101750002046029A00F0FAFC03B0F0BD10B582B04A
:101760000446002001E0491E641C002914D02278A0
:10177000202AF8D0092AF6D001AA2046FFF726FC35
:1017800000280BD0207820210143202901D0641C9F
:10179000F8E700202070C04302B010BD019802B0ED
:1017A00010BD0000F0B585B0044615480668154A1E
:1017B000136800209E4221D2039401901568049181
:1017C000881D0290104F02E00C36AE4215D23468EC
:1017D000062220463946FEF76FFD0028F4D1A01DF1
:1017E0000399049AFEF768FD0028EDD10298205C69
:1017F0000028E9D1B06805B0F0BD019805B0F0BD92
:10180000A8000020AC000020582D000000207047E8
:1018100001207047F0B581B00092002968D00346DE
:101820000020044601E08C4260D28C42254600D85C
:101830000D461E78202E01D0092E07D1A54204D0D6
:1018400000221A70641C5B1CF3E72C4607284DD855
:101850008C424BD28200222E07D15D1C009EB550D7
:10186000661C8E4217D3002716E0009DAB508C42B9
:10187000224600D80A46171B401C00255E5D092E33
:1018800005D0202E03D0AF422BD06D1CF6E7641993
:101890008C4229D32AE001275B7802E000276B788D
:1018A0006D1C222B15D08E4213D25C2B06D16B7887
:1018B000222B05D03446222B05D005E0344603E028
:1018C000A41C222B00D16D1C661C8E42E6D201277F
:1018D000E5E7401C002F09D000222A70A41C6B1CD5
:1018E000A1E714468C4201D25B199CE701B0F0BD20
:1018F000002001B0F0BD0000B0B542685F49096842
:101900008A18824211D05388002B0ED15A4B1B6883
:101910009A420AD05A4B1C68944200D1186053680E
:101920004360431A52688A18936082688B18834216
:1019300002D05C88002C00D0B0BD514C2568854297
:1019400000D1236044685C60406808188260B0BDC4
:1019500080B582B014200A21009101900120030279
:1019600004A00649002200F080FC00F073FD02B0E4
:1019700080BDC0466D61696E00000000C5160000A4
:10198000B0B504464C43204600F08EF905460028C9
:1019900004D000212846224600F047FA2846B0BD70
:1019A000B0B50B4C034DA54203D201CD8047A542F3
:1019B000FBD3B0BD642D0000B0B5044C044DA5426E
:1019C00003D201CD8047A542FBD3B0BD702D0000EE
:1019D000682D000080B5FEF7E1FB0F490A88521C14
:1019E0000A80FEF7DFFB80BD80B5FEF7D7FB0A4912
:1019F0000A88521E0A8012B2002A02DDFEF7D2FBCC
:101A000080BD00220A80FEF7CDFB04480068002854
:101A1000F6D000F0BBFA80BD7851002068010020AC
:101A200070B5002827D00446EE4D2868A04222D881
:101A3000F0480068A0421ED90B20C64331460B3146
:101A4000E74800F045FB20460C38F52149010160CC
:101A5000E5490A68824200D9086031194968411A8B
:101A60002A68891AE14A1368C9181160FFF744FF10
:101A7000DB4800F001FB70BDB0000020B400002086
:101A80005801002003487047052000030149081849
:101A90007047C0466C01002010B50A4800687D21DF
:101AA000C90000F0BCFEFFF75BFAFFF779FFFFF714
:101AB000E9FF0446FFF7E8FF0146204600F060FB1F
:101AC00010BDC0460000002010B5FFF723F8002825
:101AD00011D0FFF711F8FFF725F80446FFF712F8C9
:101AE000002806D1E0B2FFF727F8FFF70BF800282F
:101AF000F8D0E0B210BD0020C443E0B210BDFFF743
:101B000049FDFEE7F0B5141D072294432246403AF2
:101B10003F25ED43094E2F46E6513F1DFCD12C19C0
:101B200000250126360621626562A562E56225630D
:101B30006363A063E6631046F0BDC046EFBEADDE52
:101B400080B5FEF72BFB08490A78521C0A70FEF795
:101B500029FB80BD80B5FEF721FB03490A78521EA0
:101B60000A70FEF71FFB80BD7051002080B5006831
:101B7000143800F02AFC80BD70B516460C460546A8
:101B8000084600F07CFC002E16D0012E13D1204612
:101B900035302E463668AE420ED02121715C027877
:101BA0008A42F7D23046143814302146143100F0FE
:101BB00031F8AE4200D070BD14342846214600F002
:101BC00029F870BD80B5143000F001F880BD0060C8
:101BD0004060704700604060704700604060704740
:101BE000006040607047026851600A6048600160B0
:101BF0007047000003490A68506002604160086055
:101C00007047C0467C510020026851600A604860FD
:101C1000016070474268116005C108394160704732
:101C20004268116005C1083941607047426811601F
:101C300005C10839416070470168091A48424841A6
:101C400070470168091A4842484170470168091AFB
:101C500048424841704706C84A60083842681160E7
:101C600000604060704706C84A60083842681160EA
:101C700000604060704706C84A60083842681160DA
:101C800000604060704706C84A60083842681160CA
:101C900000604060704706C84A60083842681160BA
:101CA0000060406070470000F0B587B00024002855
:101CB0005ED0C51C03208543484E3068854257D806
:101CC00000200290C143464800F002FA45490A68E4
:101CD000454800680192821A0C2D00D80C253768FF
:101CE0000495781B82423FD23068049BC31A09686E
:101CF0000691091D0591039304E005998A589A42BB
:101D0000074631D206998E1871880029F5D11546FB
:101D10000C3571684C1B0346049884421846039B9B
:101D2000EBD30596F52040010390049E3046183011
:101D3000844220D20120059C60800198001B40183D
:101D40002A490A688018086029490A688242264B95
:101D5000039D00D2086025801868A0422AD0204840
:101D600000F08AF90C3403E01D4800F085F9029C6C
:101D7000204607B0F0BDA8190C36069B039D1D52E6
:101D80001B18596000215980059C60609A600121F0
:101D9000618059680C37B94202D0069A51188860A0
:101DA000124908683018086011490A6882420E4BCF
:101DB000D0D3D0E7186841880029D0D00D490A68EF
:101DC0009042CCD009684068069A10181860428882
:101DD000002AC4D08142F6D1C1E7C046600100208C
:101DE000B8000020B400002058010020A0530020BB
:101DF0005C010020B000002010B581420BD28B188E
:101E0000834208D9002A0FD0431E491E8C5C9C5483
:101E1000521EFBD108E0002A06D003460C781C7045
:101E20005B1C491C521EF9D110BD10B50446CBB243
:101E3000042A01D3A00708D02046002A03D0114667
:101E40001A46FEF789FA204610BD1802C018010490
:101E500009182046102A07D3016041608160C160E3
:101E60001030103A0F2AF7D8042AE6D302C0121F06
:101E7000032AFBD8E1E7F0B581B00E46074600F033
:101E800045F80546C068FFF70FFF002819D0044643
:101E9000EA68009600263146FFF7C7FF6672277290
:101EA00008222046009900F051F9FEF777F906461E
:101EB000281D21460C31FFF796FE3046FEF772F9D9
:101EC00000E00024204601B0F0BDB0B5044600207B
:101ED0002072FEF763F9054620460C30FFF7C3FE7B
:101EE0002846FEF75FF92046FFF79AFDB0BDB0B572
:101EF000044600202072FEF751F905460C342046B6
:101F0000FFF7B1FE2846FEF74DF9B0BD0021054AA6
:101F10005358834204D010314029F9D10020704732
:101F20005018704704000020F0B581B016460F46E7
:101F300004460846FFF7EAFF0546FFF74BFD2D1D57
:101F400028460068A842FCD180200743FFF74CFDDB
:101F5000277208222046314600F0F8F8FEF71EF9F5
:101F600006460C3428462146FFF73DFE3046FEF774
:101F700019F901B0F0BD007AC009704780B5FFF7CC
:101F8000DFFD00F0FBFAFFF7E5FD80BDB0B5FEF721
:101F900005F90446A3480088002803D02046FEF730
:101FA00001F9B0BDAA480068FEF7EAFF421ED00062
:101FB000A84909580B46143BD14D28689842EDD0EA
:101FC0002B60994B1A7008311C30054A1278002A90
:101FD00002D0FEF7EAF8E1E7FEF7E7F8DEE7C046F1
:101FE0007051002070B505463426FEF7D7F8044638
:101FF000A85DF0210140481CA8552846343040789F
:10200000C0009449081829461431FFF709FEA86B4F
:102010008F490A6802430A602046FEF7C3F870BD84
:10202000B0B50546FEF7BAF8044628461430FFF767
:1020300022FE3520285CC00086490818FFF701FE03
:10204000002804D0A86B82490A6882430A602046AF
:10205000FEF7A8F8B0BDC04670B51C4615460A4646
:1020600006460221FFF760FF3046FFF7ABFD7472B2
:10207000B583002070BD0000F0B581B00646FEF7C4
:102080008DF80446374614373846FFF7D5FD054628
:10209000002806D0B08B0D4988420ED0401CB0837A
:1020A00002E03846FFF762FD2046FEF77BF8002489
:1020B000002D07D1FFF76AFF04E02046FEF772F813
:1020C0000220C443204601B0F0BDC046FFFF00001F
:1020D00070B582B006460191FEF760F80446B08BF9
:1020E000002807D0401EB0832046FEF75BF8002092
:1020F00002B070BD0198002820D000F085F9054697
:1021000000202863727A143630462946FFF734FDE2
:102110000198012809DB2E464436002101AA3046E9
:1021200000F098FA304600F0E7FA2046FEF73AF859
:10213000FFF72CFF286B0028DAD1D8E72046FEF7FE
:1021400031F80120C04302B070BD704710B504469D
:10215000002A0BD00120821A20460B780370002B36
:1021600006D0401C521C491C012AF6D1204610BD45
:10217000002AFBD0401C5142FEF713F9204610BD47
:10218000B0B50322D2431140192921D3C01C1040FD
:102190000A46183A82421BD3F522540100230D1A35
:1021A0002A460C3A0460426083600A4C20600C3975
:1021B00009480160183D09480560094805C10A60E1
:1021C000084809A10122FFF747FF20680849086075
:1021D000B0BDC046B4000020B00000206001002067
:1021E000A01E0100B80000206865617000000000BA
:1021F0005801002070B50B48002505802026CF4CE3
:102200002046FFF7E7FC0834761EF9D1CA4805607E
:1022100005481F2101700E4805604A48FFF7DAFCA7
:1022200070BDC046785100206401002080B5084888
:102230000068FEF7A5FEC000C049401808380068D5
:1022400001461439BC4A11600830FDF7E6FF80BD35
:10225000845200208451002080B50248FFF7C0FC62
:1022600080BDC046905300207047F0B585B01F4632
:1022700004920E4601460120FFF7FDFD00240028D0
:1022800015D005463846FFF70FFD00280CD0034651
:102290000B980A9900970191029028463146049ABA
:1022A000FEF7C6FE2C4602E02846FFF70EFE20464B
:1022B00005B0F0BDB0B5A0480568FDF76FFF044656
:1022C0002846FEF703FF2846FFF7AAFE3420042124
:1022D00029542846443000F0E8F92846FFF74BFE21
:1022E000012803D12846FFF702FE03E014352846F3
:1022F000FFF780FCFFF74AFE2046FDF753FFB0BD15
:102300006801002000F002F8FCE7000070B50D4EF7
:10231000FDF744FF0446FEF751FE00280ED0356855
:102320002846FFF798FC6869FFF77AFB143D2846BA
:10233000FFF7CBFD2046FDF735FFE9E72046FDF727
:1023400031FF70BD7C51002010B584B02020039077
:102350001F20029008480090012000020190074CC5
:1023600007A1094A0023204600F010F8204600F09B
:1023700071F804B010BDC04688520020D80000207B
:102380007469646C650000000523000070B584B0BA
:102390001C4615460A4606460121FFF7C5FD0B9867
:1023A00002900A98019009980090089B30462946AF
:1023B0002246FEF73DFE002004B070BD80B500F05F
:1023C000BFF800F025F8002080BD70B50546342028
:1023D000285C0F2101400024022912D1FDF7DEFE06
:1023E000064628461430FFF74EFC2846443000F0DD
:1023F000C1F93046FDF7D6FE2846FFF7F3FD20462B
:1024000070BDE04370BD00004B4800687047C04697
:10241000F0B581B00090FDF7C1FE0646464804685D
:10242000204600F02CF82746443700256A463846F7
:10243000294600F00FF9384600F05EF93046FDF706
:10244000B1FEFFF7A3FD206B801C00D125630020A7
:1024500001B0F0BD80B5342102224254014634312E
:102460008A784A70012191408163FFF7AEFFFFF740
:10247000CBFF002801D0FFF789FD002080BDF0B51B
:1024800081B005463420285C0F2101400024012939
:1024900014D12F463437FDF781FE06462846FFF754
:1024A000BFFD3878F0210140881C3870443528463B
:1024B00000F060F93046FDF775FE00E0E443204689
:1024C00001B0F0BD10B504460120C0432063204692
:1024D0001430FFF7D8FB2046FFF784FDFFF756FDC9
:1024E00010BD000070B5FDF759FE0446124805689E
:1024F0003420285C0F210140012917D16869A9699E
:10250000884213D02E46343614352846FFF7BBFBDD
:102510007078C000094908182946FFF787FB204654
:10252000FDF740FEFFF732FD002070BD2046FDF7AD
:1025300039FE002070BDC046680100208451002093
:10254000B0B5002810D404467D20C5002046294699
:10255000FDF73AFF641A0648421C4A431018294600
:1025600000F07FF92018B0BD0020C043B0BDC046C8
:10257000E70300000C4800687047C04680B50A4871
:102580000168491C0160FFF73FFF016C491E0164AF
:1025900002D000F00BF880BDC16B0164FFF7A2FF11
:1025A00000F004F880BDC0468C530020F0B585B023
:1025B00003A8FFF715FBFFF7DDFF0546FDF7EEFD6E
:1025C0000090694C2046FFF741FB002804D000989A
:1025D000FDF7E8FD05B0F0BD1320C043019016E003
:1025E00003AD28463946FFF70FFBB968F8688847FE
:1025F000FFF7C0FF02902846FFF728FB002819D0FC
:10260000594C2046FFF722FB0028029DDFD12768A6
:102610007869281A55498842D9D8019EBC192046A4
:10262000FEF74EFD0936B85D8107D9D4FE2108407A
:10263000B855D5E73846FFF72EFBB85D03210140BA
:102640000329DDD1FE210840B855204600F054F89A
:10265000D6E7C04670B515460E460446FDF79EFD0A
:10266000042E1ED87E4436797600B744020B0E1332
:1026700005002968616214E0617AC9070FD1002161
:1026800029600EE0616A29600BE0617AFD220A4050
:10269000627206E0617A02220A43627201E001215D
:1026A0002960FDF77FFD002070BDB0B50446FDF741
:1026B00075FD05462046FEF703FD607AFE210140C8
:1026C00061722846FDF76EFD2046FFF710FC0020E2
:1026D000B0BD70B582B01C4615460A4606460A21B2
:1026E000FFF722FC07980090069B304629462246B9
:1026F000FEF7D8FC02B070BD70B582B00446FDF79D
:102700004DFD05462046FEF7DBFC607AFE210140C8
:102710006172FFF72FFF616A0918A16212480190E8
:10272000426882420DD0C943104A03461B685B6968
:102730005B18934205D3019B1B68019346689E4238
:10274000F4D10B480168491C0160019821461431FD
:10275000FFF75AFA607A0121014361722846FDF7BA
:1027600021FD002002B070BD90530020FEFFFF7FCE
:102770009853002070B505460024407AC00701D167
:10278000E04370BDFDF70AFD06462846FEF798FCBB
:10279000687AFE21014069723046FDF703FD20464C
:1027A00070BD002070470020704700207047002057
:1027B000704780B5FDF7F2FCFFF76EF9FFF7C5FC37
:1027C000FFF74AFDFFF716FDFFF7C2F8FFF74CFDD4
:1027D000FFF7BAFDFFF72AFD002080BD10B50446C3
:1027E000FFF716F8012802D12046FEF771FF10BD51
:1027F00010B50378002B02460AD002460C78002C54
:1028000006D0A34204D15378491C521C002BF5D1A9
:10281000101A10BD80B5FFF798FC002080BD43085A
:102820008B421AD3002203098B4279D3030A8B42CD
:102830005ED3030B8B4242D3030C8B4227D3090296
:10284000FF2212BA030C8B4202D31212090203D0E8
:10285000030B8B4233D31AE0D3E0411A8041401C72
:10286000704703460B4371D443088B42F5D30022D3
:1028700003098B4254D3030A8B4239D3030B8B4297
:102880001DD3030C8B4202D394466EE0090AC30B9E
:102890008B4201D3CB03C01A5241830B8B4201D32D
:1028A0008B03C01A5241430B8B4201D34B03C01A16
:1028B0005241030B8B4201D30B03C01A5241C30A8E
:1028C0008B4201D3CB02C01A5241830A8B4201D3FF
:1028D0008B02C01A5241430A8B4201D34B02C01AE9
:1028E0005241030A8B4201D30B02C01A5241CDD28E
:1028F000C3098B4201D3CB01C01A524183098B42D9
:1029000001D38B01C01A524143098B4201D34B01C1
:10291000C01A524103098B4201D30B01C01A524124
:10292000C3088B4201D3CB00C01A524183088B42AB
:1029300001D38B00C01A524143088B4201D34B0094
:10294000C01A5241411A524110007047CA0F00D0BC
:102950004942031000D34042534000229C460309E1
:102960008B422DD3030A8B4212D38901FC2212BA67
:10297000030A8B420CD3890192118B4208D389013F
:1029800092118B4204D3890137D0921100E089095A
:10299000C3098B4201D3CB01C01A524183098B4238
:1029A00001D38B01C01A524143098B4201D34B0121
:1029B000C01A524103098B4201D30B01C01A524184
:1029C000C3088B4201D3CB00C01A524183088B420B
:1029D00001D38B00C01A5241D9D243088B4201D394
:1029E0004B00C01A5241411A00D2014652411046D2
:1029F00063465B1000D34042704763465B1000D3D0
:102A0000404201B50021004201D0C9430846C046FA
:102A1000C04602BD000001000200010003000100E9
:102A20000200010004000100020001000300010097
:102A30000200010005000100020001000300010086
:102A40000200010004000100020001000300010077
:102A50000200010006000100020001000300010065
:102A60000200010004000100020001000300010057
:102A70000200010005000100020001000300010046
:102A80000200010004000100020001000300010037
:102A90000200010007000100020001000300010024
:102AA0000200010004000100020001000300010017
:102AB0000200010005000100020001000300010006
:102AC00002000100040001000200010003000100F7
:102AD00002000100060001000200010003000100E5
:102AE00002000100040001000200010003000100D7
:102AF00002000100050001000200010003000100C6
:102B000002000100040001000200010003000100B6
:102B10000200010068656C6C6F0073617920686564
:102B20006C6C6F20776F726C640076657273696F7E
:102B30006E0073686F772052542D5468726561641B
:102B40002076657273696F6E20696E666F726D6153
:102B500074696F6E005F5F636D645F766572736941
:102B60006F6E0073686F772052542D5468726561E0
:102B7000642076657273696F6E20696E666F726D20
:102B80006174696F6E006C6973745F7468726561FB
:102B900064006C69737420746872656164005F5FBF
:102BA000636D645F6C6973745F74687265616400FF
:102BB0006C69737420746872656164006C69737405
:102BC0005F73656D006C6973742073656D61706807
:102BD0006F726520696E2073797374656D005F5F35
:102BE000636D645F6C6973745F73656D006C6973AA
:102BF000742073656D6170686F726520696E2073F3
:102C0000797374656D006C6973745F6D61696C6272
:102C10006F78006C697374206D61696C20626F78E5
:102C200020696E2073797374656D005F5F636D64F6
:102C30005F6C6973745F6D61696C626F78006C6959
:102C40007374206D61696C20626F7820696E2073E7
:102C5000797374656D006C6973745F74696D657206
:102C6000006C6973742074696D657220696E2073DD
:102C7000797374656D005F5F636D645F6C69737415
:102C80005F74696D6572006C6973742074696D6539
:102C90007220696E2073797374656D006C6973744A
:102CA000006C69737420616C6C2073796D626F6C59
:102CB00020696E2073797374656D005F5F636D6466
:102CC0005F68656C700052542D54687265616420B1
:102CD0007368656C6C2068656C702E005F5F636D57
:102CE000645F7073004C697374207468726561640A
:102CF0007320696E207468652073797374656D2E16
:102D0000005F5F636D645F667265650053686F772F
:102D100020746865206D656D6F72792075736167C9
:102D20006520696E207468652073797374656D2EF3
:102D3000006C6973745F6D656D006C697374206DF0
:102D4000656D6F727920757361676520696E666F56
:102D5000726D6174696F6E005F5F636D645F000028
:102D6000AF270000A7270000A327000031110000B3
:102D7000AB270000142B00001A2B00006914000080
:102D80002A2B0000322B000015280000552B0000D4
:102D9000632B000015280000862B0000922B0000FA
:102DA000951500009E2B0000B02B0000951500002B
:102DB000BC2B0000C52B000055150000DE2B0000C9
:102DC000ED2B000055150000062C0000132C000010
:102DD000131500002B2C00003E2C000013150000E2
:102DE000562C0000612C0000FB150000762C000022
:102DF000872C0000FB1500009C2C0000A12C00007B
:102E000089140000BB2C0000C62C00000D18000027
:102E1000DC2C0000E52C0000F3100000012D000068
:102E20000C2D0000E9100000312D00003A2D0000AB
:102E300053150000582E000000000020480000003C
:102E400004010000A02E0000480000206063000084
:102E5000200100000000000000127A0001000000C4
:102E60000800002008000020780000000200000098
:102E700018000020180000202000000005000000BD
:102E80002800002028000020300000000A00000078
:102E900038000020380000202C0000000000000056
:04000005000000C136
:00000001FF
